{"abi":[{"type":"constructor","inputs":[{"name":"_hasher","type":"address","internalType":"contract IHasher"},{"name":"_verifier_deposit","type":"address","internalType":"contract IVerifier_deposit"},{"name":"_verifier_withdraw","type":"address","internalType":"contract IVerifier_withdraw"},{"name":"_denomination","type":"uint256","internalType":"uint256"},{"name":"_merkleTreeHeight","type":"uint32","internalType":"uint32"}],"stateMutability":"nonpayable"},{"type":"function","name":"FIELD_SIZE","inputs":[],"outputs":[{"name":"","type":"uint256","internalType":"uint256"}],"stateMutability":"view"},{"type":"function","name":"commitments","inputs":[{"name":"","type":"bytes32","internalType":"bytes32"}],"outputs":[{"name":"","type":"bool","internalType":"bool"}],"stateMutability":"view"},{"type":"function","name":"commitmentsList","inputs":[{"name":"","type":"uint256","internalType":"uint256"}],"outputs":[{"name":"","type":"bytes32","internalType":"bytes32"}],"stateMutability":"view"},{"type":"function","name":"denomination","inputs":[],"outputs":[{"name":"","type":"uint256","internalType":"uint256"}],"stateMutability":"view"},{"type":"function","name":"deposit","inputs":[{"name":"_proof","type":"bytes","internalType":"bytes"},{"name":"kG_Hash","type":"bytes32","internalType":"bytes32"},{"name":"kS","type":"bytes32[2]","internalType":"bytes32[2]"},{"name":"S","type":"bytes32[2]","internalType":"bytes32[2]"}],"outputs":[],"stateMutability":"payable"},{"type":"function","name":"depositorOfkS","inputs":[{"name":"","type":"bytes32","internalType":"bytes32"},{"name":"","type":"bytes32","internalType":"bytes32"}],"outputs":[{"name":"","type":"address","internalType":"address"}],"stateMutability":"view"},{"type":"function","name":"filledSubtrees","inputs":[{"name":"","type":"uint256","internalType":"uint256"}],"outputs":[{"name":"","type":"bytes32","internalType":"bytes32"}],"stateMutability":"view"},{"type":"function","name":"getCommitments","inputs":[],"outputs":[{"name":"","type":"bytes32[]","internalType":"bytes32[]"}],"stateMutability":"view"},{"type":"function","name":"hashLeftRight","inputs":[{"name":"_left","type":"bytes32","internalType":"bytes32"},{"name":"_right","type":"bytes32","internalType":"bytes32"}],"outputs":[{"name":"","type":"bytes32","internalType":"bytes32"}],"stateMutability":"view"},{"type":"function","name":"hasher","inputs":[],"outputs":[{"name":"","type":"address","internalType":"contract IHasher"}],"stateMutability":"view"},{"type":"function","name":"insert","inputs":[{"name":"_leaf","type":"bytes32","internalType":"bytes32"}],"outputs":[{"name":"","type":"uint32","internalType":"uint32"}],"stateMutability":"nonpayable"},{"type":"function","name":"isKnownRoot","inputs":[{"name":"_root","type":"bytes32","internalType":"bytes32"}],"outputs":[{"name":"","type":"bool","internalType":"bool"}],"stateMutability":"view"},{"type":"function","name":"levels","inputs":[],"outputs":[{"name":"","type":"uint32","internalType":"uint32"}],"stateMutability":"view"},{"type":"function","name":"nextIndex","inputs":[],"outputs":[{"name":"","type":"uint32","internalType":"uint32"}],"stateMutability":"view"},{"type":"function","name":"nullilfierHashes","inputs":[{"name":"","type":"bytes32","internalType":"bytes32"}],"outputs":[{"name":"","type":"bool","internalType":"bool"}],"stateMutability":"view"},{"type":"function","name":"root","inputs":[],"outputs":[{"name":"","type":"bytes32","internalType":"bytes32"}],"stateMutability":"view"},{"type":"function","name":"supervisorPublickeyEnd","inputs":[{"name":"","type":"uint256","internalType":"uint256"}],"outputs":[{"name":"","type":"bytes32","internalType":"bytes32"}],"stateMutability":"view"},{"type":"function","name":"supervisorPublickeyStart","inputs":[{"name":"","type":"uint256","internalType":"uint256"}],"outputs":[{"name":"","type":"bytes32","internalType":"bytes32"}],"stateMutability":"view"},{"type":"function","name":"verifier_deposit","inputs":[],"outputs":[{"name":"","type":"address","internalType":"contract IVerifier_deposit"}],"stateMutability":"view"},{"type":"function","name":"verifier_withdraw","inputs":[],"outputs":[{"name":"","type":"address","internalType":"contract IVerifier_withdraw"}],"stateMutability":"view"},{"type":"function","name":"withdraw","inputs":[{"name":"_proof","type":"bytes","internalType":"bytes"},{"name":"_pubSignals","type":"uint256[41]","internalType":"uint256[41]"}],"outputs":[],"stateMutability":"nonpayable"},{"type":"function","name":"withdrawerOfkE","inputs":[{"name":"","type":"bytes32","internalType":"bytes32"},{"name":"","type":"bytes32","internalType":"bytes32"}],"outputs":[{"name":"","type":"address","internalType":"address"}],"stateMutability":"view"},{"type":"function","name":"zeros","inputs":[{"name":"i","type":"uint32","internalType":"uint32"}],"outputs":[{"name":"","type":"bytes32","internalType":"bytes32"}],"stateMutability":"pure"},{"type":"event","name":"Deposit","inputs":[{"name":"commitment","type":"bytes32","indexed":false,"internalType":"bytes32"},{"name":"leafIndex","type":"uint32","indexed":false,"internalType":"uint32"}],"anonymous":false},{"type":"event","name":"Withdraw","inputs":[{"name":"_recipient","type":"address","indexed":false,"internalType":"address"},{"name":"_nullilfierHash","type":"bytes32","indexed":false,"internalType":"bytes32"}],"anonymous":false},{"type":"error","name":"ReentrancyGuardReentrantCall","inputs":[]}],"bytecode":{"object":"0x6101206040527f1a6ef912793139a54cbbe77ceff5acce3140b659744d1c516aad7682ba97919960e09081527f198f3a926b833efd0056926724c072fdcfb1ebb84e77e60daa14a1484070dd07610100526200006090600890600262000899565b50604080518082019091527f1f76b93712e7dcb087468c1469e1f8425d17d265d2f870c9c22d9cb1399e598681527f2f7843eb4df4334d2f14a3a844c4430bee0ec46cfec755fcf02707f3a424f5fa6020820152620000c490600a90600262000899565b50348015620000d257600080fd5b506040516200291638038062002916833981016040819052620000f5916200090c565b6000805463ffffffff191663ffffffff83161781556001600160a01b038616608052819086905b60005463ffffffff908116908216101562000167576200013c816200018d565b63ffffffff8216600090815260016020526040902055806200015e8162000988565b9150506200011c565b5050600160035550506001600160a01b0392831660a052911660c05260045550620009ba565b60008163ffffffff16600003620001c557507f2fe54c60d3acabf3343a35b6eba15db4821b340f76e741e2249685ed4899af6c919050565b8163ffffffff16600103620001fb57507f256a6135777eee2fd26f54b8b7037a25439d5235caee224154186d2b8a52e31d919050565b8163ffffffff166002036200023157507f1151949895e82ab19924de92c40a3d6f7bcb60d92b00504b8199613683f0c200919050565b8163ffffffff166003036200026757507f20121ee811489ff8d61f09fb89e313f14959a0f28bb428a20dba6b0b068b3bdb919050565b8163ffffffff166004036200029d57507f0a89ca6ffa14cc462cfedb842c30ed221a50a3d6bf022a6a57dc82ab24c157c9919050565b8163ffffffff16600503620002d357507f24ca05c2b5cd42e890d6be94c68d0689f4f21c9cec9c0f13fe41d566dfb54959919050565b8163ffffffff166006036200030957507f1ccb97c932565a92c60156bdba2d08f3bf1377464e025cee765679e604a7315c919050565b8163ffffffff166007036200033f57507f19156fbd7d1a8bf5cba8909367de1b624534ebab4f0f79e003bccdd1b182bdb4919050565b8163ffffffff166008036200037557507f261af8c1f0912e465744641409f622d466c3920ac6e5ff37e36604cb11dfff80919050565b8163ffffffff16600903620003aa57507e58459724ff6ca5a1652fcbc3e82b93895cf08e975b19beab3f54c217d1c007919050565b8163ffffffff16600a03620003e057507f1f04ef20dee48d39984d8eabe768a70eafa6310ad20849d4573c3c40c2ad1e30919050565b8163ffffffff16600b036200041657507f1bea3dec5dab51567ce7e200a30f7ba6d4276aeaa53e2686f962a46c66d511e5919050565b8163ffffffff16600c036200044c57507f0ee0f941e2da4b9e31c3ca97a40d8fa9ce68d97c084177071b3cb46cd3372f0f919050565b8163ffffffff16600d036200048257507f1ca9503e8935884501bbaf20be14eb4c46b89772c97b96e3b2ebf3a36a948bbd919050565b8163ffffffff16600e03620004b857507f133a80e30697cd55d8f7d4b0965b7be24057ba5dc3da898ee2187232446cb108919050565b8163ffffffff16600f03620004ee57507f13e6d8fc88839ed76e182c2a779af5b2c0da9dd18c90427a644f7e148a6253b6919050565b8163ffffffff166010036200052457507f1eb16b057a477f4bc8f572ea6bee39561098f78f15bfb3699dcbb7bd8db61854919050565b8163ffffffff166011036200055a57507f0da2cb16a1ceaabf1c16b838f7a9e3f2a3a3088d9e0a6debaa748114620696ea919050565b8163ffffffff166012036200059057507f24a3b3d822420b14b5d8cb6c28a574f01e98ea9e940551d2ebd75cee12649f9d919050565b8163ffffffff16601303620005c657507f198622acbd783d1b0d9064105b1fc8e4d8889de95c4c519b3f635809fe6afc05919050565b8163ffffffff16601403620005fc57507f29d7ed391256ccc3ea596c86e933b89ff339d25ea8ddced975ae2fe30b5296d4919050565b8163ffffffff166015036200063257507f19be59f2f0413ce78c0c3703a3a5451b1d7f39629fa33abd11548a76065b2967919050565b8163ffffffff166016036200066857507f1ff3f61797e538b70e619310d33f2a063e7eb59104e112e95738da1254dc3453919050565b8163ffffffff166017036200069e57507f10c16ae9959cf8358980d9dd9616e48228737310a10e2b6b731c1a548f036c48919050565b8163ffffffff16601803620006d457507f0ba433a63174a90ac20992e75e3095496812b652685b5e1a2eae0b1bf4e8fcd1919050565b8163ffffffff166019036200070a57507f019ddb9df2bc98d987d0dfeca9d2b643deafab8f7036562e627c3667266a044c919050565b8163ffffffff16601a036200074057507f2d3c88b23175c5a5565db928414c66d1912b11acf974b2e644caaac04739ce99919050565b8163ffffffff16601b036200077657507f2eab55f6ae4e66e32c5189eed5c470840863445760f5ed7e7b69b2a62600f354919050565b8163ffffffff16601c03620007ab57507e2df37a2642621802383cf952bf4dd1f32e05433beeb1fd41031fb7eace979d919050565b8163ffffffff16601d03620007e157507f104aeb41435db66c3e62feccc1d6f5d98d0a0ed75d1374db457cf462e3a1f427919050565b8163ffffffff16601e036200081757507f1f3c6fd858e9a7d4b0d1f38e256a09d81d5a5e3c963987e2d4b814cfab7c6ebb919050565b8163ffffffff16601f036200084d57507f2c7a07d20dff79d01fecedc1134284a8d08436606c93693b67e333f671bf69cc919050565b60405162461bcd60e51b815260206004820152601360248201527f496e646578206f7574206f6620626f756e647300000000000000000000000000604482015260640160405180910390fd5b8260028101928215620008ca579160200282015b82811115620008ca578251825591602001919060010190620008ad565b50620008d8929150620008dc565b5090565b5b80821115620008d85760008155600101620008dd565b6001600160a01b03811681146200090957600080fd5b50565b600080600080600060a086880312156200092557600080fd5b85516200093281620008f3565b60208701519095506200094581620008f3565b60408701519094506200095881620008f3565b60608701516080880151919450925063ffffffff811681146200097a57600080fd5b809150509295509295909350565b600063ffffffff808316818103620009b057634e487b7160e01b600052601160045260246000fd5b6001019392505050565b60805160a05160c051611f1062000a06600039600081816104090152610c3e01526000818161028f015261057701526000818161045301528181610fd901526110890152611f106000f3fe6080604052600436106101405760003560e01c80638bca6d16116100b6578063ebf0c7171161006f578063ebf0c7171461042b578063ed33639f14610441578063f178e47c14610475578063f1ea66d4146104a2578063f5db8b0b146104c4578063fc7e9c6f146104e457600080fd5b80638bca6d16146103305780639485ede814610346578063a63b235f14610366578063a7f53131146103a7578063ced1e003146103c7578063ea3a2b5a146103f757600080fd5b80633babfc82116101085780633babfc8214610202578063414a37ba1461025b57806345a16ed11461027d5780634ecf518b146102b15780636d9833e3146102ce578063839df9451461030057600080fd5b806311a9c5d41461014557806325250a851461015a5780632d287e431461018d57806338767d11146101c257806338bf282e146101e2575b600080fd5b610158610153366004611946565b610509565b005b34801561016657600080fd5b5061017a6101753660046119b6565b61090c565b6040519081526020015b60405180910390f35b34801561019957600080fd5b506101ad6101a83660046119b6565b610923565b60405163ffffffff9091168152602001610184565b3480156101ce57600080fd5b506101586101dd3660046119cf565b610a7b565b3480156101ee57600080fd5b5061017a6101fd366004611a2c565b610eeb565b34801561020e57600080fd5b5061024361021d366004611a2c565b600c6020908152600092835260408084209091529082529020546001600160a01b031681565b6040516001600160a01b039091168152602001610184565b34801561026757600080fd5b5061017a600080516020611ebb83398151915281565b34801561028957600080fd5b506102437f000000000000000000000000000000000000000000000000000000000000000081565b3480156102bd57600080fd5b506000546101ad9063ffffffff1681565b3480156102da57600080fd5b506102f06102e93660046119b6565b6002541490565b6040519015158152602001610184565b34801561030c57600080fd5b506102f061031b3660046119b6565b60056020526000908152604090205460ff1681565b34801561033c57600080fd5b5061017a60045481565b34801561035257600080fd5b5061017a6103613660046119b6565b611107565b34801561037257600080fd5b50610243610381366004611a2c565b600d6020908152600092835260408084209091529082529020546001600160a01b031681565b3480156103b357600080fd5b5061017a6103c2366004611a4e565b611128565b3480156103d357600080fd5b506102f06103e23660046119b6565b60066020526000908152604090205460ff1681565b34801561040357600080fd5b506102437f000000000000000000000000000000000000000000000000000000000000000081565b34801561043757600080fd5b5061017a60025481565b34801561044d57600080fd5b506102437f000000000000000000000000000000000000000000000000000000000000000081565b34801561048157600080fd5b5061017a6104903660046119b6565b60016020526000908152604090205481565b3480156104ae57600080fd5b506104b7611806565b6040516101849190611a7b565b3480156104d057600080fd5b5061017a6104df3660046119b6565b6118b2565b3480156104f057600080fd5b506000546101ad90640100000000900463ffffffff1681565b6105116118c2565b600854813514801561052857506009546020820135145b6105655760405162461bcd60e51b815260206004820152600960248201526814c81a5b9d985b1a5960ba1b60448201526064015b60405180910390fd5b600061057385870187611aeb565b90507f00000000000000000000000000000000000000000000000000000000000000006001600160a01b03166334baeab96040518060400160405280846000600881106105c2576105c2611abf565b60200201518152602001846001600881106105df576105df611abf565b602002015190526040805160808101825285820151918101918252908190606082018760036020020151815250815260200160405180604001604052808760046008811061062f5761062f611abf565b602002015181526020018760056008811061064c5761064c611abf565b6020020151905290526040805180820190915280866006602002015181526020018660076008811061068057610680611abf565b60200201518152506040518060a001604052808a60001c8152602001896000600281106106af576106af611abf565b6020908102919091013582528a810135828201528935604080840191909152908a01356060909201919091525160e086901b6001600160e01b03191681526106fd9493929190600401611bcf565b6020604051808303816000875af115801561071c573d6000803e3d6000fd5b505050506040513d601f19601f820116820180604052508101906107409190611c2c565b6107835760405162461bcd60e51b815260206004820152601460248201527324b73b30b634b2103232b837b9ba10383937b7b360611b604482015260640161055c565b60008481526005602052604090205460ff16156107e25760405162461bcd60e51b815260206004820152601a60248201527f546865206b475f4861736820686173206265656e206164646564000000000000604482015260640161055c565b60045434146108285760405162461bcd60e51b815260206004820152601260248201527122b93937b9103232b737b6b4b730ba34b7b760711b604482015260640161055c565b82356000908152600c60209081526040808320828701358452909152812080546001600160a01b0319163317905561085f85610923565b600086815260056020526040808220805460ff191660019081179091556007805491820181559092527fa66cc928b5edb82af9bd49922954155ab7b0942694bea4ce44661d9a8736c688909101879055519091507f84fc9eb8cd0a782a1d1734fbeed616bd0ef775f8b9bd437636b62d634fe4baf3906108f1908790849091825263ffffffff16602082015260400190565b60405180910390a150506109056001600355565b5050505050565b6008816002811061091c57600080fd5b0154905081565b6000805463ffffffff640100000000820481169161094391166002611d75565b63ffffffff168163ffffffff16036109935760405162461bcd60e51b815260206004820152601360248201527213595c9adb19481d1c9959481a5cc8199d5b1b606a1b604482015260640161055c565b8083600080805b60005463ffffffff9081169082161015610a38576109b9600286611da8565b63ffffffff166000036109f1578392506109d281611128565b63ffffffff821660009081526001602052604090208590559150610a0d565b63ffffffff811660009081526001602052604090205492508391505b610a178383610eeb565b9350610a24600286611dcb565b945080610a3081611dee565b91505061099a565b506002839055610a49856001611e11565b6000805463ffffffff929092166401000000000267ffffffff0000000019909216919091179055509295945050505050565b610a836118c2565b60408051808201825260208381013582528383013581830152825181815261042081019093528335926000918181016104008036833701905050905060005b6020811015610b1e5784610ad7826003611e2e565b60298110610ae757610ae7611abf565b602002013560001b828281518110610b0157610b01611abf565b602090810291909101015280610b1681611e41565b915050610ac2565b506000604051806040016040528086602360298110610b3f57610b3f611abf565b602090810291909101358252610480880135910152600a5481519192506104a0870135916104c0880135916104e0890135916105008a013591148015610b8a5750600b546020860151145b610bc25760405162461bcd60e51b815260206004820152600960248201526811481a5b9d985b1a5960ba1b604482015260640161055c565b60008881526006602052604090205460ff1615610c2c5760405162461bcd60e51b815260206004820152602260248201527f546865206b485f486173682068617320616c7265616479206265656e207370656044820152611b9d60f21b606482015260840161055c565b6000610c3a8b8d018d611aeb565b90507f00000000000000000000000000000000000000000000000000000000000000006001600160a01b031663a44f8897604051806040016040528084600060088110610c8957610c89611abf565b6020020151815260200184600160088110610ca657610ca6611abf565b6020020151905260408051608081018252858201519181019182529081906060820187600360200201518152508152602001604051806040016040528087600460088110610cf657610cf6611abf565b6020020151815260200187600560088110610d1357610d13611abf565b60200201519052905260408051808201909152808660066020020151815260200186600760088110610d4757610d47611abf565b60200201518152508e6040518563ffffffff1660e01b8152600401610d6f9493929190611e5a565b6020604051808303816000875af1158015610d8e573d6000803e3d6000fd5b505050506040513d601f19601f82011682018060405250810190610db29190611c2c565b610df75760405162461bcd60e51b815260206004820152601660248201527524b73b30b634b2103bb4ba34323930bb90383937b7b360511b604482015260640161055c565b6000898152600660209081526040808320805460ff191660011790558a518352600d82528083208b830151845290915280822080546001600160a01b0319166001600160a01b03891690811790915560045491519091908381818185875af1925050503d8060008114610e86576040519150601f19603f3d011682016040523d82523d6000602084013e610e8b565b606091505b5050604080516001600160a01b0389168152602081018d90529192507fb18c630f7b4f080f2ce1a87d68860e67aef56b0978e448ed92312da4eebeb160910160405180910390a150505050505050505050610ee66001600355565b505050565b6000600080516020611ebb8339815191528310610f4a5760405162461bcd60e51b815260206004820181905260248201527f5f6c6566742073686f756c6420626520696e7369646520746865206669656c64604482015260640161055c565b600080516020611ebb8339815191528210610fb15760405162461bcd60e51b815260206004820152602160248201527f5f72696768742073686f756c6420626520696e7369646520746865206669656c6044820152601960fa1b606482015260840161055c565b604051633f1a118760e01b8152600481018490526000602482018190526044820181905284917f00000000000000000000000000000000000000000000000000000000000000006001600160a01b031690633f1a1187906064016040805180830381865afa158015611027573d6000803e3d6000fd5b505050506040513d601f19601f8201168201806040525081019061104b9190611e96565b9092509050600080516020611ebb833981519152848308604051633f1a118760e01b81526004810182905260248101839052600060448201529092507f00000000000000000000000000000000000000000000000000000000000000006001600160a01b031690633f1a1187906064016040805180830381865afa1580156110d7573d6000803e3d6000fd5b505050506040513d601f19601f820116820180604052508101906110fb9190611e96565b50925050505b92915050565b6007818154811061111757600080fd5b600091825260209091200154905081565b60008163ffffffff1660000361115f57507f2fe54c60d3acabf3343a35b6eba15db4821b340f76e741e2249685ed4899af6c919050565b8163ffffffff1660010361119457507f256a6135777eee2fd26f54b8b7037a25439d5235caee224154186d2b8a52e31d919050565b8163ffffffff166002036111c957507f1151949895e82ab19924de92c40a3d6f7bcb60d92b00504b8199613683f0c200919050565b8163ffffffff166003036111fe57507f20121ee811489ff8d61f09fb89e313f14959a0f28bb428a20dba6b0b068b3bdb919050565b8163ffffffff1660040361123357507f0a89ca6ffa14cc462cfedb842c30ed221a50a3d6bf022a6a57dc82ab24c157c9919050565b8163ffffffff1660050361126857507f24ca05c2b5cd42e890d6be94c68d0689f4f21c9cec9c0f13fe41d566dfb54959919050565b8163ffffffff1660060361129d57507f1ccb97c932565a92c60156bdba2d08f3bf1377464e025cee765679e604a7315c919050565b8163ffffffff166007036112d257507f19156fbd7d1a8bf5cba8909367de1b624534ebab4f0f79e003bccdd1b182bdb4919050565b8163ffffffff1660080361130757507f261af8c1f0912e465744641409f622d466c3920ac6e5ff37e36604cb11dfff80919050565b8163ffffffff1660090361133b57507e58459724ff6ca5a1652fcbc3e82b93895cf08e975b19beab3f54c217d1c007919050565b8163ffffffff16600a0361137057507f1f04ef20dee48d39984d8eabe768a70eafa6310ad20849d4573c3c40c2ad1e30919050565b8163ffffffff16600b036113a557507f1bea3dec5dab51567ce7e200a30f7ba6d4276aeaa53e2686f962a46c66d511e5919050565b8163ffffffff16600c036113da57507f0ee0f941e2da4b9e31c3ca97a40d8fa9ce68d97c084177071b3cb46cd3372f0f919050565b8163ffffffff16600d0361140f57507f1ca9503e8935884501bbaf20be14eb4c46b89772c97b96e3b2ebf3a36a948bbd919050565b8163ffffffff16600e0361144457507f133a80e30697cd55d8f7d4b0965b7be24057ba5dc3da898ee2187232446cb108919050565b8163ffffffff16600f0361147957507f13e6d8fc88839ed76e182c2a779af5b2c0da9dd18c90427a644f7e148a6253b6919050565b8163ffffffff166010036114ae57507f1eb16b057a477f4bc8f572ea6bee39561098f78f15bfb3699dcbb7bd8db61854919050565b8163ffffffff166011036114e357507f0da2cb16a1ceaabf1c16b838f7a9e3f2a3a3088d9e0a6debaa748114620696ea919050565b8163ffffffff1660120361151857507f24a3b3d822420b14b5d8cb6c28a574f01e98ea9e940551d2ebd75cee12649f9d919050565b8163ffffffff1660130361154d57507f198622acbd783d1b0d9064105b1fc8e4d8889de95c4c519b3f635809fe6afc05919050565b8163ffffffff1660140361158257507f29d7ed391256ccc3ea596c86e933b89ff339d25ea8ddced975ae2fe30b5296d4919050565b8163ffffffff166015036115b757507f19be59f2f0413ce78c0c3703a3a5451b1d7f39629fa33abd11548a76065b2967919050565b8163ffffffff166016036115ec57507f1ff3f61797e538b70e619310d33f2a063e7eb59104e112e95738da1254dc3453919050565b8163ffffffff1660170361162157507f10c16ae9959cf8358980d9dd9616e48228737310a10e2b6b731c1a548f036c48919050565b8163ffffffff1660180361165657507f0ba433a63174a90ac20992e75e3095496812b652685b5e1a2eae0b1bf4e8fcd1919050565b8163ffffffff1660190361168b57507f019ddb9df2bc98d987d0dfeca9d2b643deafab8f7036562e627c3667266a044c919050565b8163ffffffff16601a036116c057507f2d3c88b23175c5a5565db928414c66d1912b11acf974b2e644caaac04739ce99919050565b8163ffffffff16601b036116f557507f2eab55f6ae4e66e32c5189eed5c470840863445760f5ed7e7b69b2a62600f354919050565b8163ffffffff16601c0361172957507e2df37a2642621802383cf952bf4dd1f32e05433beeb1fd41031fb7eace979d919050565b8163ffffffff16601d0361175e57507f104aeb41435db66c3e62feccc1d6f5d98d0a0ed75d1374db457cf462e3a1f427919050565b8163ffffffff16601e0361179357507f1f3c6fd858e9a7d4b0d1f38e256a09d81d5a5e3c963987e2d4b814cfab7c6ebb919050565b8163ffffffff16601f036117c857507f2c7a07d20dff79d01fecedc1134284a8d08436606c93693b67e333f671bf69cc919050565b60405162461bcd60e51b8152602060048201526013602482015272496e646578206f7574206f6620626f756e647360681b604482015260640161055c565b60075460609060008167ffffffffffffffff81111561182757611827611ad5565b604051908082528060200260200182016040528015611850578160200160208202803683370190505b50905060005b828110156118ab576007818154811061187157611871611abf565b906000526020600020015482828151811061188e5761188e611abf565b6020908102919091010152806118a381611e41565b915050611856565b5092915050565b600a816002811061091c57600080fd5b6002600354036118e557604051633ee5aeb560e01b815260040160405180910390fd5b6002600355565b60008083601f8401126118fe57600080fd5b50813567ffffffffffffffff81111561191657600080fd5b60208301915083602082850101111561192e57600080fd5b9250929050565b806040810183101561110157600080fd5b600080600080600060c0868803121561195e57600080fd5b853567ffffffffffffffff81111561197557600080fd5b611981888289016118ec565b9096509450506020860135925061199b8760408801611935565b91506119aa8760808801611935565b90509295509295909350565b6000602082840312156119c857600080fd5b5035919050565b60008060006105408085870312156119e657600080fd5b843567ffffffffffffffff8111156119fd57600080fd5b611a09878288016118ec565b909550935050848101861015611a1e57600080fd5b506020840190509250925092565b60008060408385031215611a3f57600080fd5b50508035926020909101359150565b600060208284031215611a6057600080fd5b813563ffffffff81168114611a7457600080fd5b9392505050565b6020808252825182820181905260009190848201906040850190845b81811015611ab357835183529284019291840191600101611a97565b50909695505050505050565b634e487b7160e01b600052603260045260246000fd5b634e487b7160e01b600052604160045260246000fd5b6000610100808385031215611aff57600080fd5b83601f840112611b0e57600080fd5b60405181810181811067ffffffffffffffff82111715611b3e57634e487b7160e01b600052604160045260246000fd5b604052908301908085831115611b5357600080fd5b845b83811015611b6d578035825260209182019101611b55565b509095945050505050565b8060005b6002811015611b9b578151845260209384019390910190600101611b7c565b50505050565b8060005b6002811015611b9b57611bb9848351611b78565b6040939093019260209190910190600101611ba5565b6101a08101611bde8287611b78565b611beb6040830186611ba1565b611bf860c0830185611b78565b61010082018360005b6005811015611c20578151835260209283019290910190600101611c01565b50505095945050505050565b600060208284031215611c3e57600080fd5b81518015158114611a7457600080fd5b634e487b7160e01b600052601160045260246000fd5b600181815b80851115611ca1578163ffffffff04821115611c8757611c87611c4e565b80851615611c9457918102915b93841c9390800290611c69565b509250929050565b600082611cb857506001611101565b81611cc557506000611101565b8160018114611cdb5760028114611ce557611d16565b6001915050611101565b60ff841115611cf657611cf6611c4e565b6001841b915063ffffffff821115611d1057611d10611c4e565b50611101565b5060208310610133831016604e8410600b8410161715611d4d575081810a63ffffffff811115611d4857611d48611c4e565b611101565b611d578383611c64565b8063ffffffff04821115611d6d57611d6d611c4e565b029392505050565b600063ffffffff611d8a818516828516611ca9565b949350505050565b634e487b7160e01b600052601260045260246000fd5b600063ffffffff80841680611dbf57611dbf611d92565b92169190910692915050565b600063ffffffff80841680611de257611de2611d92565b92169190910492915050565b600063ffffffff808316818103611e0757611e07611c4e565b6001019392505050565b63ffffffff8181168382160190808211156118ab576118ab611c4e565b8082018082111561110157611101611c4e565b600060018201611e5357611e53611c4e565b5060010190565b6106208101611e698287611b78565b611e766040830186611ba1565b611e8360c0830185611b78565b6105208361010084013795945050505050565b60008060408385031215611ea957600080fd5b50508051602090910151909290915056fe30644e72e131a029b85045b68181585d2833e84879b9709143e1f593f0000001a2646970667358221220cb04c0c892ba263bfcf47269ad41ae55c2196bd5ed108e2155a2e52b8f6b5e2564736f6c63430008140033","linkReferences":{}},"methodIdentifiers":{"FIELD_SIZE()":"414a37ba","commitments(bytes32)":"839df945","commitmentsList(uint256)":"9485ede8","denomination()":"8bca6d16","deposit(bytes,bytes32,bytes32[2],bytes32[2])":"11a9c5d4","depositorOfkS(bytes32,bytes32)":"3babfc82","filledSubtrees(uint256)":"f178e47c","getCommitments()":"f1ea66d4","hashLeftRight(bytes32,bytes32)":"38bf282e","hasher()":"ed33639f","insert(bytes32)":"2d287e43","isKnownRoot(bytes32)":"6d9833e3","levels()":"4ecf518b","nextIndex()":"fc7e9c6f","nullilfierHashes(bytes32)":"ced1e003","root()":"ebf0c717","supervisorPublickeyEnd(uint256)":"f5db8b0b","supervisorPublickeyStart(uint256)":"25250a85","verifier_deposit()":"45a16ed1","verifier_withdraw()":"ea3a2b5a","withdraw(bytes,uint256[41])":"38767d11","withdrawerOfkE(bytes32,bytes32)":"a63b235f","zeros(uint32)":"a7f53131"},"id":24}