{"abi":[{"type":"constructor","inputs":[{"name":"_hasher","type":"address","internalType":"contract IHasher"},{"name":"_verifier_deposit","type":"address","internalType":"contract IVerifier_deposit"},{"name":"_verifier_withdraw","type":"address","internalType":"contract IVerifier_withdraw"},{"name":"_denomination","type":"uint256","internalType":"uint256"},{"name":"_merkleTreeHeight","type":"uint32","internalType":"uint32"}],"stateMutability":"nonpayable"},{"type":"function","name":"FIELD_SIZE","inputs":[],"outputs":[{"name":"","type":"uint256","internalType":"uint256"}],"stateMutability":"view"},{"type":"function","name":"commitments","inputs":[{"name":"","type":"bytes32","internalType":"bytes32"}],"outputs":[{"name":"","type":"bool","internalType":"bool"}],"stateMutability":"view"},{"type":"function","name":"denomination","inputs":[],"outputs":[{"name":"","type":"uint256","internalType":"uint256"}],"stateMutability":"view"},{"type":"function","name":"deposit","inputs":[{"name":"_proof","type":"bytes","internalType":"bytes"},{"name":"kG_Hash","type":"bytes32","internalType":"bytes32"},{"name":"kS","type":"bytes32[2]","internalType":"bytes32[2]"},{"name":"S","type":"bytes32[2]","internalType":"bytes32[2]"}],"outputs":[],"stateMutability":"payable"},{"type":"function","name":"depositorOfkS","inputs":[{"name":"","type":"bytes32","internalType":"bytes32"},{"name":"","type":"bytes32","internalType":"bytes32"}],"outputs":[{"name":"","type":"address","internalType":"address"}],"stateMutability":"view"},{"type":"function","name":"filledSubtrees","inputs":[{"name":"","type":"uint256","internalType":"uint256"}],"outputs":[{"name":"","type":"bytes32","internalType":"bytes32"}],"stateMutability":"view"},{"type":"function","name":"hashLeftRight","inputs":[{"name":"_left","type":"bytes32","internalType":"bytes32"},{"name":"_right","type":"bytes32","internalType":"bytes32"}],"outputs":[{"name":"","type":"bytes32","internalType":"bytes32"}],"stateMutability":"view"},{"type":"function","name":"hasher","inputs":[],"outputs":[{"name":"","type":"address","internalType":"contract IHasher"}],"stateMutability":"view"},{"type":"function","name":"insert","inputs":[{"name":"_leaf","type":"bytes32","internalType":"bytes32"}],"outputs":[{"name":"","type":"uint32","internalType":"uint32"}],"stateMutability":"nonpayable"},{"type":"function","name":"isKnownRoot","inputs":[{"name":"_root","type":"bytes32","internalType":"bytes32"}],"outputs":[{"name":"","type":"bool","internalType":"bool"}],"stateMutability":"view"},{"type":"function","name":"levels","inputs":[],"outputs":[{"name":"","type":"uint32","internalType":"uint32"}],"stateMutability":"view"},{"type":"function","name":"nextIndex","inputs":[],"outputs":[{"name":"","type":"uint32","internalType":"uint32"}],"stateMutability":"view"},{"type":"function","name":"nullilfierHashes","inputs":[{"name":"","type":"bytes32","internalType":"bytes32"}],"outputs":[{"name":"","type":"bool","internalType":"bool"}],"stateMutability":"view"},{"type":"function","name":"root","inputs":[],"outputs":[{"name":"","type":"bytes32","internalType":"bytes32"}],"stateMutability":"view"},{"type":"function","name":"supervisorPublickeyEnd","inputs":[{"name":"","type":"uint256","internalType":"uint256"}],"outputs":[{"name":"","type":"bytes32","internalType":"bytes32"}],"stateMutability":"view"},{"type":"function","name":"supervisorPublickeyStart","inputs":[{"name":"","type":"uint256","internalType":"uint256"}],"outputs":[{"name":"","type":"bytes32","internalType":"bytes32"}],"stateMutability":"view"},{"type":"function","name":"verifier_deposit","inputs":[],"outputs":[{"name":"","type":"address","internalType":"contract IVerifier_deposit"}],"stateMutability":"view"},{"type":"function","name":"verifier_withdraw","inputs":[],"outputs":[{"name":"","type":"address","internalType":"contract IVerifier_withdraw"}],"stateMutability":"view"},{"type":"function","name":"withdraw","inputs":[{"name":"_proof","type":"bytes","internalType":"bytes"},{"name":"_pubSignals","type":"uint256[41]","internalType":"uint256[41]"}],"outputs":[],"stateMutability":"nonpayable"},{"type":"function","name":"withdrawerOfkE","inputs":[{"name":"","type":"bytes32","internalType":"bytes32"},{"name":"","type":"bytes32","internalType":"bytes32"}],"outputs":[{"name":"","type":"address","internalType":"address"}],"stateMutability":"view"},{"type":"function","name":"zeros","inputs":[{"name":"i","type":"uint32","internalType":"uint32"}],"outputs":[{"name":"","type":"bytes32","internalType":"bytes32"}],"stateMutability":"pure"},{"type":"event","name":"Deposit","inputs":[{"name":"commitment","type":"bytes32","indexed":false,"internalType":"bytes32"},{"name":"leafIndex","type":"uint32","indexed":false,"internalType":"uint32"}],"anonymous":false},{"type":"event","name":"Withdraw","inputs":[{"name":"_recipient","type":"address","indexed":false,"internalType":"address"},{"name":"_nullilfierHash","type":"bytes32","indexed":false,"internalType":"bytes32"}],"anonymous":false},{"type":"error","name":"ReentrancyGuardReentrantCall","inputs":[]}],"bytecode":{"object":"0x6101206040527f1a6ef912793139a54cbbe77ceff5acce3140b659744d1c516aad7682ba97919960e09081527f198f3a926b833efd0056926724c072fdcfb1ebb84e77e60daa14a1484070dd07610100526200006090600790600262000899565b50604080518082019091527f1f76b93712e7dcb087468c1469e1f8425d17d265d2f870c9c22d9cb1399e598681527f2f7843eb4df4334d2f14a3a844c4430bee0ec46cfec755fcf02707f3a424f5fa6020820152620000c490600990600262000899565b50348015620000d257600080fd5b506040516200278c3803806200278c833981016040819052620000f5916200090c565b6000805463ffffffff191663ffffffff83161781556001600160a01b038616608052819086905b60005463ffffffff908116908216101562000167576200013c816200018d565b63ffffffff8216600090815260016020526040902055806200015e8162000988565b9150506200011c565b5050600160035550506001600160a01b0392831660a052911660c05260045550620009ba565b60008163ffffffff16600003620001c557507f2fe54c60d3acabf3343a35b6eba15db4821b340f76e741e2249685ed4899af6c919050565b8163ffffffff16600103620001fb57507f256a6135777eee2fd26f54b8b7037a25439d5235caee224154186d2b8a52e31d919050565b8163ffffffff166002036200023157507f1151949895e82ab19924de92c40a3d6f7bcb60d92b00504b8199613683f0c200919050565b8163ffffffff166003036200026757507f20121ee811489ff8d61f09fb89e313f14959a0f28bb428a20dba6b0b068b3bdb919050565b8163ffffffff166004036200029d57507f0a89ca6ffa14cc462cfedb842c30ed221a50a3d6bf022a6a57dc82ab24c157c9919050565b8163ffffffff16600503620002d357507f24ca05c2b5cd42e890d6be94c68d0689f4f21c9cec9c0f13fe41d566dfb54959919050565b8163ffffffff166006036200030957507f1ccb97c932565a92c60156bdba2d08f3bf1377464e025cee765679e604a7315c919050565b8163ffffffff166007036200033f57507f19156fbd7d1a8bf5cba8909367de1b624534ebab4f0f79e003bccdd1b182bdb4919050565b8163ffffffff166008036200037557507f261af8c1f0912e465744641409f622d466c3920ac6e5ff37e36604cb11dfff80919050565b8163ffffffff16600903620003aa57507e58459724ff6ca5a1652fcbc3e82b93895cf08e975b19beab3f54c217d1c007919050565b8163ffffffff16600a03620003e057507f1f04ef20dee48d39984d8eabe768a70eafa6310ad20849d4573c3c40c2ad1e30919050565b8163ffffffff16600b036200041657507f1bea3dec5dab51567ce7e200a30f7ba6d4276aeaa53e2686f962a46c66d511e5919050565b8163ffffffff16600c036200044c57507f0ee0f941e2da4b9e31c3ca97a40d8fa9ce68d97c084177071b3cb46cd3372f0f919050565b8163ffffffff16600d036200048257507f1ca9503e8935884501bbaf20be14eb4c46b89772c97b96e3b2ebf3a36a948bbd919050565b8163ffffffff16600e03620004b857507f133a80e30697cd55d8f7d4b0965b7be24057ba5dc3da898ee2187232446cb108919050565b8163ffffffff16600f03620004ee57507f13e6d8fc88839ed76e182c2a779af5b2c0da9dd18c90427a644f7e148a6253b6919050565b8163ffffffff166010036200052457507f1eb16b057a477f4bc8f572ea6bee39561098f78f15bfb3699dcbb7bd8db61854919050565b8163ffffffff166011036200055a57507f0da2cb16a1ceaabf1c16b838f7a9e3f2a3a3088d9e0a6debaa748114620696ea919050565b8163ffffffff166012036200059057507f24a3b3d822420b14b5d8cb6c28a574f01e98ea9e940551d2ebd75cee12649f9d919050565b8163ffffffff16601303620005c657507f198622acbd783d1b0d9064105b1fc8e4d8889de95c4c519b3f635809fe6afc05919050565b8163ffffffff16601403620005fc57507f29d7ed391256ccc3ea596c86e933b89ff339d25ea8ddced975ae2fe30b5296d4919050565b8163ffffffff166015036200063257507f19be59f2f0413ce78c0c3703a3a5451b1d7f39629fa33abd11548a76065b2967919050565b8163ffffffff166016036200066857507f1ff3f61797e538b70e619310d33f2a063e7eb59104e112e95738da1254dc3453919050565b8163ffffffff166017036200069e57507f10c16ae9959cf8358980d9dd9616e48228737310a10e2b6b731c1a548f036c48919050565b8163ffffffff16601803620006d457507f0ba433a63174a90ac20992e75e3095496812b652685b5e1a2eae0b1bf4e8fcd1919050565b8163ffffffff166019036200070a57507f019ddb9df2bc98d987d0dfeca9d2b643deafab8f7036562e627c3667266a044c919050565b8163ffffffff16601a036200074057507f2d3c88b23175c5a5565db928414c66d1912b11acf974b2e644caaac04739ce99919050565b8163ffffffff16601b036200077657507f2eab55f6ae4e66e32c5189eed5c470840863445760f5ed7e7b69b2a62600f354919050565b8163ffffffff16601c03620007ab57507e2df37a2642621802383cf952bf4dd1f32e05433beeb1fd41031fb7eace979d919050565b8163ffffffff16601d03620007e157507f104aeb41435db66c3e62feccc1d6f5d98d0a0ed75d1374db457cf462e3a1f427919050565b8163ffffffff16601e036200081757507f1f3c6fd858e9a7d4b0d1f38e256a09d81d5a5e3c963987e2d4b814cfab7c6ebb919050565b8163ffffffff16601f036200084d57507f2c7a07d20dff79d01fecedc1134284a8d08436606c93693b67e333f671bf69cc919050565b60405162461bcd60e51b815260206004820152601360248201527f496e646578206f7574206f6620626f756e647300000000000000000000000000604482015260640160405180910390fd5b8260028101928215620008ca579160200282015b82811115620008ca578251825591602001919060010190620008ad565b50620008d8929150620008dc565b5090565b5b80821115620008d85760008155600101620008dd565b6001600160a01b03811681146200090957600080fd5b50565b600080600080600060a086880312156200092557600080fd5b85516200093281620008f3565b60208701519095506200094581620008f3565b60408701519094506200095881620008f3565b60608701516080880151919450925063ffffffff811681146200097a57600080fd5b809150509295509295909350565b600063ffffffff808316818103620009b057634e487b7160e01b600052601160045260246000fd5b6001019392505050565b60805160a05160c051611d8662000a06600039600081816103d30152610bb1015260008181610279015261051f01526000818161041d01528181610f4c0152610ffc0152611d866000f3fe60806040526004361061012a5760003560e01c8063839df945116100ab578063ea3a2b5a1161006f578063ea3a2b5a146103c1578063ebf0c717146103f5578063ed33639f1461040b578063f178e47c1461043f578063f5db8b0b1461046c578063fc7e9c6f1461048c57600080fd5b8063839df945146102ea5780638bca6d161461031a578063a63b235f14610330578063a7f5313114610371578063ced1e0031461039157600080fd5b80633babfc82116100f25780633babfc82146101ec578063414a37ba1461024557806345a16ed1146102675780634ecf518b1461029b5780636d9833e3146102b857600080fd5b806311a9c5d41461012f57806325250a85146101445780632d287e431461017757806338767d11146101ac57806338bf282e146101cc575b600080fd5b61014261013d3660046117ec565b6104b1565b005b34801561015057600080fd5b5061016461015f36600461185c565b61087f565b6040519081526020015b60405180910390f35b34801561018357600080fd5b5061019761019236600461185c565b610896565b60405163ffffffff909116815260200161016e565b3480156101b857600080fd5b506101426101c7366004611875565b6109ee565b3480156101d857600080fd5b506101646101e73660046118d2565b610e5e565b3480156101f857600080fd5b5061022d6102073660046118d2565b600b6020908152600092835260408084209091529082529020546001600160a01b031681565b6040516001600160a01b03909116815260200161016e565b34801561025157600080fd5b50610164600080516020611d3183398151915281565b34801561027357600080fd5b5061022d7f000000000000000000000000000000000000000000000000000000000000000081565b3480156102a757600080fd5b506000546101979063ffffffff1681565b3480156102c457600080fd5b506102da6102d336600461185c565b6002541490565b604051901515815260200161016e565b3480156102f657600080fd5b506102da61030536600461185c565b60056020526000908152604090205460ff1681565b34801561032657600080fd5b5061016460045481565b34801561033c57600080fd5b5061022d61034b3660046118d2565b600c6020908152600092835260408084209091529082529020546001600160a01b031681565b34801561037d57600080fd5b5061016461038c3660046118f4565b61107a565b34801561039d57600080fd5b506102da6103ac36600461185c565b60066020526000908152604090205460ff1681565b3480156103cd57600080fd5b5061022d7f000000000000000000000000000000000000000000000000000000000000000081565b34801561040157600080fd5b5061016460025481565b34801561041757600080fd5b5061022d7f000000000000000000000000000000000000000000000000000000000000000081565b34801561044b57600080fd5b5061016461045a36600461185c565b60016020526000908152604090205481565b34801561047857600080fd5b5061016461048736600461185c565b611758565b34801561049857600080fd5b5060005461019790640100000000900463ffffffff1681565b6104b9611768565b60075481351480156104d057506008546020820135145b61050d5760405162461bcd60e51b815260206004820152600960248201526814c81a5b9d985b1a5960ba1b60448201526064015b60405180910390fd5b600061051b85870187611937565b90507f00000000000000000000000000000000000000000000000000000000000000006001600160a01b03166334baeab960405180604001604052808460006008811061056a5761056a611921565b602002015181526020018460016008811061058757610587611921565b60200201519052604080516080810182528582015191810191825290819060608201876003602002015181525081526020016040518060400160405280876004600881106105d7576105d7611921565b60200201518152602001876005600881106105f4576105f4611921565b6020020151905290526040805180820190915280866006602002015181526020018660076008811061062857610628611921565b60200201518152506040518060a001604052808a60001c81526020018960006002811061065757610657611921565b6020908102919091013582528a810135828201528935604080840191909152908a01356060909201919091525160e086901b6001600160e01b03191681526106a59493929190600401611a3e565b6020604051808303816000875af11580156106c4573d6000803e3d6000fd5b505050506040513d601f19601f820116820180604052508101906106e89190611a9b565b61072b5760405162461bcd60e51b815260206004820152601460248201527324b73b30b634b2103232b837b9ba10383937b7b360611b6044820152606401610504565b60008481526005602052604090205460ff161561078a5760405162461bcd60e51b815260206004820152601a60248201527f546865206b475f4861736820686173206265656e2061646465640000000000006044820152606401610504565b60045434146107d05760405162461bcd60e51b815260206004820152601260248201527122b93937b9103232b737b6b4b730ba34b7b760711b6044820152606401610504565b82356000908152600b60209081526040808320828701358452909152812080546001600160a01b0319163317905561080785610896565b60008681526005602052604090819020805460ff19166001179055519091507f84fc9eb8cd0a782a1d1734fbeed616bd0ef775f8b9bd437636b62d634fe4baf390610864908790849091825263ffffffff16602082015260400190565b60405180910390a150506108786001600355565b5050505050565b6007816002811061088f57600080fd5b0154905081565b6000805463ffffffff64010000000082048116916108b691166002611be4565b63ffffffff168163ffffffff16036109065760405162461bcd60e51b815260206004820152601360248201527213595c9adb19481d1c9959481a5cc8199d5b1b606a1b6044820152606401610504565b8083600080805b60005463ffffffff90811690821610156109ab5761092c600286611c17565b63ffffffff16600003610964578392506109458161107a565b63ffffffff821660009081526001602052604090208590559150610980565b63ffffffff811660009081526001602052604090205492508391505b61098a8383610e5e565b9350610997600286611c3a565b9450806109a381611c5d565b91505061090d565b5060028390556109bc856001611c80565b6000805463ffffffff929092166401000000000267ffffffff0000000019909216919091179055509295945050505050565b6109f6611768565b60408051808201825260208381013582528383013581830152825181815261042081019093528335926000918181016104008036833701905050905060005b6020811015610a915784610a4a826003611ca4565b60298110610a5a57610a5a611921565b602002013560001b828281518110610a7457610a74611921565b602090810291909101015280610a8981611cb7565b915050610a35565b506000604051806040016040528086602360298110610ab257610ab2611921565b60209081029190910135825261048088013591015260095481519192506104a0870135916104c0880135916104e0890135916105008a013591148015610afd5750600a546020860151145b610b355760405162461bcd60e51b815260206004820152600960248201526811481a5b9d985b1a5960ba1b6044820152606401610504565b60008881526006602052604090205460ff1615610b9f5760405162461bcd60e51b815260206004820152602260248201527f546865206b485f486173682068617320616c7265616479206265656e207370656044820152611b9d60f21b6064820152608401610504565b6000610bad8b8d018d611937565b90507f00000000000000000000000000000000000000000000000000000000000000006001600160a01b031663a44f8897604051806040016040528084600060088110610bfc57610bfc611921565b6020020151815260200184600160088110610c1957610c19611921565b6020020151905260408051608081018252858201519181019182529081906060820187600360200201518152508152602001604051806040016040528087600460088110610c6957610c69611921565b6020020151815260200187600560088110610c8657610c86611921565b60200201519052905260408051808201909152808660066020020151815260200186600760088110610cba57610cba611921565b60200201518152508e6040518563ffffffff1660e01b8152600401610ce29493929190611cd0565b6020604051808303816000875af1158015610d01573d6000803e3d6000fd5b505050506040513d601f19601f82011682018060405250810190610d259190611a9b565b610d6a5760405162461bcd60e51b815260206004820152601660248201527524b73b30b634b2103bb4ba34323930bb90383937b7b360511b6044820152606401610504565b6000898152600660209081526040808320805460ff191660011790558a518352600c82528083208b830151845290915280822080546001600160a01b0319166001600160a01b03891690811790915560045491519091908381818185875af1925050503d8060008114610df9576040519150601f19603f3d011682016040523d82523d6000602084013e610dfe565b606091505b5050604080516001600160a01b0389168152602081018d90529192507fb18c630f7b4f080f2ce1a87d68860e67aef56b0978e448ed92312da4eebeb160910160405180910390a150505050505050505050610e596001600355565b505050565b6000600080516020611d318339815191528310610ebd5760405162461bcd60e51b815260206004820181905260248201527f5f6c6566742073686f756c6420626520696e7369646520746865206669656c646044820152606401610504565b600080516020611d318339815191528210610f245760405162461bcd60e51b815260206004820152602160248201527f5f72696768742073686f756c6420626520696e7369646520746865206669656c6044820152601960fa1b6064820152608401610504565b604051633f1a118760e01b8152600481018490526000602482018190526044820181905284917f00000000000000000000000000000000000000000000000000000000000000006001600160a01b031690633f1a1187906064016040805180830381865afa158015610f9a573d6000803e3d6000fd5b505050506040513d601f19601f82011682018060405250810190610fbe9190611d0c565b9092509050600080516020611d31833981519152848308604051633f1a118760e01b81526004810182905260248101839052600060448201529092507f00000000000000000000000000000000000000000000000000000000000000006001600160a01b031690633f1a1187906064016040805180830381865afa15801561104a573d6000803e3d6000fd5b505050506040513d601f19601f8201168201806040525081019061106e9190611d0c565b50925050505b92915050565b60008163ffffffff166000036110b157507f2fe54c60d3acabf3343a35b6eba15db4821b340f76e741e2249685ed4899af6c919050565b8163ffffffff166001036110e657507f256a6135777eee2fd26f54b8b7037a25439d5235caee224154186d2b8a52e31d919050565b8163ffffffff1660020361111b57507f1151949895e82ab19924de92c40a3d6f7bcb60d92b00504b8199613683f0c200919050565b8163ffffffff1660030361115057507f20121ee811489ff8d61f09fb89e313f14959a0f28bb428a20dba6b0b068b3bdb919050565b8163ffffffff1660040361118557507f0a89ca6ffa14cc462cfedb842c30ed221a50a3d6bf022a6a57dc82ab24c157c9919050565b8163ffffffff166005036111ba57507f24ca05c2b5cd42e890d6be94c68d0689f4f21c9cec9c0f13fe41d566dfb54959919050565b8163ffffffff166006036111ef57507f1ccb97c932565a92c60156bdba2d08f3bf1377464e025cee765679e604a7315c919050565b8163ffffffff1660070361122457507f19156fbd7d1a8bf5cba8909367de1b624534ebab4f0f79e003bccdd1b182bdb4919050565b8163ffffffff1660080361125957507f261af8c1f0912e465744641409f622d466c3920ac6e5ff37e36604cb11dfff80919050565b8163ffffffff1660090361128d57507e58459724ff6ca5a1652fcbc3e82b93895cf08e975b19beab3f54c217d1c007919050565b8163ffffffff16600a036112c257507f1f04ef20dee48d39984d8eabe768a70eafa6310ad20849d4573c3c40c2ad1e30919050565b8163ffffffff16600b036112f757507f1bea3dec5dab51567ce7e200a30f7ba6d4276aeaa53e2686f962a46c66d511e5919050565b8163ffffffff16600c0361132c57507f0ee0f941e2da4b9e31c3ca97a40d8fa9ce68d97c084177071b3cb46cd3372f0f919050565b8163ffffffff16600d0361136157507f1ca9503e8935884501bbaf20be14eb4c46b89772c97b96e3b2ebf3a36a948bbd919050565b8163ffffffff16600e0361139657507f133a80e30697cd55d8f7d4b0965b7be24057ba5dc3da898ee2187232446cb108919050565b8163ffffffff16600f036113cb57507f13e6d8fc88839ed76e182c2a779af5b2c0da9dd18c90427a644f7e148a6253b6919050565b8163ffffffff1660100361140057507f1eb16b057a477f4bc8f572ea6bee39561098f78f15bfb3699dcbb7bd8db61854919050565b8163ffffffff1660110361143557507f0da2cb16a1ceaabf1c16b838f7a9e3f2a3a3088d9e0a6debaa748114620696ea919050565b8163ffffffff1660120361146a57507f24a3b3d822420b14b5d8cb6c28a574f01e98ea9e940551d2ebd75cee12649f9d919050565b8163ffffffff1660130361149f57507f198622acbd783d1b0d9064105b1fc8e4d8889de95c4c519b3f635809fe6afc05919050565b8163ffffffff166014036114d457507f29d7ed391256ccc3ea596c86e933b89ff339d25ea8ddced975ae2fe30b5296d4919050565b8163ffffffff1660150361150957507f19be59f2f0413ce78c0c3703a3a5451b1d7f39629fa33abd11548a76065b2967919050565b8163ffffffff1660160361153e57507f1ff3f61797e538b70e619310d33f2a063e7eb59104e112e95738da1254dc3453919050565b8163ffffffff1660170361157357507f10c16ae9959cf8358980d9dd9616e48228737310a10e2b6b731c1a548f036c48919050565b8163ffffffff166018036115a857507f0ba433a63174a90ac20992e75e3095496812b652685b5e1a2eae0b1bf4e8fcd1919050565b8163ffffffff166019036115dd57507f019ddb9df2bc98d987d0dfeca9d2b643deafab8f7036562e627c3667266a044c919050565b8163ffffffff16601a0361161257507f2d3c88b23175c5a5565db928414c66d1912b11acf974b2e644caaac04739ce99919050565b8163ffffffff16601b0361164757507f2eab55f6ae4e66e32c5189eed5c470840863445760f5ed7e7b69b2a62600f354919050565b8163ffffffff16601c0361167b57507e2df37a2642621802383cf952bf4dd1f32e05433beeb1fd41031fb7eace979d919050565b8163ffffffff16601d036116b057507f104aeb41435db66c3e62feccc1d6f5d98d0a0ed75d1374db457cf462e3a1f427919050565b8163ffffffff16601e036116e557507f1f3c6fd858e9a7d4b0d1f38e256a09d81d5a5e3c963987e2d4b814cfab7c6ebb919050565b8163ffffffff16601f0361171a57507f2c7a07d20dff79d01fecedc1134284a8d08436606c93693b67e333f671bf69cc919050565b60405162461bcd60e51b8152602060048201526013602482015272496e646578206f7574206f6620626f756e647360681b6044820152606401610504565b6009816002811061088f57600080fd5b60026003540361178b57604051633ee5aeb560e01b815260040160405180910390fd5b6002600355565b60008083601f8401126117a457600080fd5b50813567ffffffffffffffff8111156117bc57600080fd5b6020830191508360208285010111156117d457600080fd5b9250929050565b806040810183101561107457600080fd5b600080600080600060c0868803121561180457600080fd5b853567ffffffffffffffff81111561181b57600080fd5b61182788828901611792565b9096509450506020860135925061184187604088016117db565b915061185087608088016117db565b90509295509295909350565b60006020828403121561186e57600080fd5b5035919050565b600080600061054080858703121561188c57600080fd5b843567ffffffffffffffff8111156118a357600080fd5b6118af87828801611792565b9095509350508481018610156118c457600080fd5b506020840190509250925092565b600080604083850312156118e557600080fd5b50508035926020909101359150565b60006020828403121561190657600080fd5b813563ffffffff8116811461191a57600080fd5b9392505050565b634e487b7160e01b600052603260045260246000fd5b600061010080838503121561194b57600080fd5b83601f84011261195a57600080fd5b60405181810181811067ffffffffffffffff8211171561198a57634e487b7160e01b600052604160045260246000fd5b60405290830190808583111561199f57600080fd5b845b838110156119b95780358252602091820191016119a1565b509095945050505050565b8060005b60028110156119e75781518452602093840193909101906001016119c8565b50505050565b806000805b6002808210611a015750610878565b835186845b83811015611a24578251825260209283019290910190600101611a06565b5050506040959095019450602092909201916001016119f2565b6101a08101611a4d82876119c4565b611a5a60408301866119ed565b611a6760c08301856119c4565b61010082018360005b6005811015611a8f578151835260209283019290910190600101611a70565b50505095945050505050565b600060208284031215611aad57600080fd5b8151801515811461191a57600080fd5b634e487b7160e01b600052601160045260246000fd5b600181815b80851115611b10578163ffffffff04821115611af657611af6611abd565b80851615611b0357918102915b93841c9390800290611ad8565b509250929050565b600082611b2757506001611074565b81611b3457506000611074565b8160018114611b4a5760028114611b5457611b85565b6001915050611074565b60ff841115611b6557611b65611abd565b6001841b915063ffffffff821115611b7f57611b7f611abd565b50611074565b5060208310610133831016604e8410600b8410161715611bbc575081810a63ffffffff811115611bb757611bb7611abd565b611074565b611bc68383611ad3565b8063ffffffff04821115611bdc57611bdc611abd565b029392505050565b600063ffffffff611bf9818516828516611b18565b949350505050565b634e487b7160e01b600052601260045260246000fd5b600063ffffffff80841680611c2e57611c2e611c01565b92169190910692915050565b600063ffffffff80841680611c5157611c51611c01565b92169190910492915050565b600063ffffffff808316818103611c7657611c76611abd565b6001019392505050565b63ffffffff818116838216019080821115611c9d57611c9d611abd565b5092915050565b8082018082111561107457611074611abd565b600060018201611cc957611cc9611abd565b5060010190565b6106208101611cdf82876119c4565b611cec60408301866119ed565b611cf960c08301856119c4565b6105208361010084013795945050505050565b60008060408385031215611d1f57600080fd5b50508051602090910151909290915056fe30644e72e131a029b85045b68181585d2833e84879b9709143e1f593f0000001a2646970667358221220853141c92edea1e04fe5b7447d27e34a8eaa43573981ac3bbc514cd4eb9f0fc664736f6c63430008140033","linkReferences":{}},"methodIdentifiers":{"FIELD_SIZE()":"414a37ba","commitments(bytes32)":"839df945","denomination()":"8bca6d16","deposit(bytes,bytes32,bytes32[2],bytes32[2])":"11a9c5d4","depositorOfkS(bytes32,bytes32)":"3babfc82","filledSubtrees(uint256)":"f178e47c","hashLeftRight(bytes32,bytes32)":"38bf282e","hasher()":"ed33639f","insert(bytes32)":"2d287e43","isKnownRoot(bytes32)":"6d9833e3","levels()":"4ecf518b","nextIndex()":"fc7e9c6f","nullilfierHashes(bytes32)":"ced1e003","root()":"ebf0c717","supervisorPublickeyEnd(uint256)":"f5db8b0b","supervisorPublickeyStart(uint256)":"25250a85","verifier_deposit()":"45a16ed1","verifier_withdraw()":"ea3a2b5a","withdraw(bytes,uint256[41])":"38767d11","withdrawerOfkE(bytes32,bytes32)":"a63b235f","zeros(uint32)":"a7f53131"},"id":22}